{
  "contractName": "MainContract",
  "abi": [
    {
      "inputs": [
        {
          "internalType": "address",
          "name": "_cDai",
          "type": "address"
        },
        {
          "internalType": "address",
          "name": "_LendingPool",
          "type": "address"
        },
        {
          "internalType": "address",
          "name": "_daiAddress",
          "type": "address"
        }
      ],
      "payable": false,
      "stateMutability": "nonpayable",
      "type": "constructor"
    },
    {
      "constant": true,
      "inputs": [],
      "name": "aaveLendingPool",
      "outputs": [
        {
          "internalType": "contract ILendingPool",
          "name": "",
          "type": "address"
        }
      ],
      "payable": false,
      "stateMutability": "view",
      "type": "function"
    },
    {
      "constant": true,
      "inputs": [],
      "name": "cDai",
      "outputs": [
        {
          "internalType": "contract CTokenInterface",
          "name": "",
          "type": "address"
        }
      ],
      "payable": false,
      "stateMutability": "view",
      "type": "function"
    },
    {
      "constant": true,
      "inputs": [],
      "name": "cDaiAddress",
      "outputs": [
        {
          "internalType": "address",
          "name": "",
          "type": "address"
        }
      ],
      "payable": false,
      "stateMutability": "view",
      "type": "function"
    },
    {
      "constant": true,
      "inputs": [],
      "name": "daiAddress",
      "outputs": [
        {
          "internalType": "address",
          "name": "",
          "type": "address"
        }
      ],
      "payable": false,
      "stateMutability": "view",
      "type": "function"
    },
    {
      "constant": true,
      "inputs": [],
      "name": "daiToken",
      "outputs": [
        {
          "internalType": "contract IERC20",
          "name": "",
          "type": "address"
        }
      ],
      "payable": false,
      "stateMutability": "view",
      "type": "function"
    },
    {
      "constant": true,
      "inputs": [],
      "name": "getCompoundDaiSupplyRate",
      "outputs": [
        {
          "internalType": "uint256",
          "name": "",
          "type": "uint256"
        }
      ],
      "payable": false,
      "stateMutability": "view",
      "type": "function"
    },
    {
      "constant": true,
      "inputs": [],
      "name": "getAaveRate",
      "outputs": [
        {
          "components": [
            {
              "components": [
                {
                  "internalType": "uint256",
                  "name": "data",
                  "type": "uint256"
                }
              ],
              "internalType": "struct DataTypes.ReserveConfigurationMap",
              "name": "configuration",
              "type": "tuple"
            },
            {
              "internalType": "uint128",
              "name": "liquidityIndex",
              "type": "uint128"
            },
            {
              "internalType": "uint128",
              "name": "variableBorrowIndex",
              "type": "uint128"
            },
            {
              "internalType": "uint128",
              "name": "currentLiquidityRate",
              "type": "uint128"
            },
            {
              "internalType": "uint128",
              "name": "currentVariableBorrowRate",
              "type": "uint128"
            },
            {
              "internalType": "uint128",
              "name": "currentStableBorrowRate",
              "type": "uint128"
            },
            {
              "internalType": "uint40",
              "name": "lastUpdateTimestamp",
              "type": "uint40"
            },
            {
              "internalType": "address",
              "name": "aTokenAddress",
              "type": "address"
            },
            {
              "internalType": "address",
              "name": "stableDebtTokenAddress",
              "type": "address"
            },
            {
              "internalType": "address",
              "name": "variableDebtTokenAddress",
              "type": "address"
            },
            {
              "internalType": "address",
              "name": "interestRateStrategyAddress",
              "type": "address"
            },
            {
              "internalType": "uint8",
              "name": "id",
              "type": "uint8"
            }
          ],
          "internalType": "struct DataTypes.ReserveData",
          "name": "",
          "type": "tuple"
        }
      ],
      "payable": false,
      "stateMutability": "view",
      "type": "function"
    },
    {
      "constant": false,
      "inputs": [
        {
          "internalType": "uint256",
          "name": "amount",
          "type": "uint256"
        }
      ],
      "name": "depositCompound",
      "outputs": [],
      "payable": false,
      "stateMutability": "nonpayable",
      "type": "function"
    },
    {
      "constant": false,
      "inputs": [
        {
          "internalType": "uint256",
          "name": "amount",
          "type": "uint256"
        }
      ],
      "name": "depositAave",
      "outputs": [],
      "payable": false,
      "stateMutability": "nonpayable",
      "type": "function"
    }
  ],
  "bytecode": "0x60806040523480156200001157600080fd5b506040516200137f3803806200137f83398181016040526200003791908101906200019b565b826000806101000a81548173ffffffffffffffffffffffffffffffffffffffff021916908373ffffffffffffffffffffffffffffffffffffffff16021790555082600160006101000a81548173ffffffffffffffffffffffffffffffffffffffff021916908373ffffffffffffffffffffffffffffffffffffffff16021790555081600260006101000a81548173ffffffffffffffffffffffffffffffffffffffff021916908373ffffffffffffffffffffffffffffffffffffffff16021790555080600360006101000a81548173ffffffffffffffffffffffffffffffffffffffff021916908373ffffffffffffffffffffffffffffffffffffffff16021790555080600460006101000a81548173ffffffffffffffffffffffffffffffffffffffff021916908373ffffffffffffffffffffffffffffffffffffffff1602179055505050506200023f565b600081519050620001958162000225565b92915050565b600080600060608486031215620001b157600080fd5b6000620001c18682870162000184565b9350506020620001d48682870162000184565b9250506040620001e78682870162000184565b9150509250925092565b6000620001fe8262000205565b9050919050565b600073ffffffffffffffffffffffffffffffffffffffff82169050919050565b6200023081620001f1565b81146200023c57600080fd5b50565b611130806200024f6000396000f3fe608060405234801561001057600080fd5b50600436106100935760003560e01c8063bd9e2dd611610066578063bd9e2dd61461010e578063be22f5461461012c578063d18345ed1461014a578063e9d337b814610166578063f2c65bf91461018457610093565b80632c387275146100985780635bc929fb146100b65780639b089d55146100d2578063b1dfd8b4146100f0575b600080fd5b6100a06101a2565b6040516100ad9190610daf565b60405180910390f35b6100d060048036036100cb9190810190610b66565b6101c8565b005b6100da61034a565b6040516100e79190610e6f565b60405180910390f35b6100f861036f565b6040516101059190610efc565b60405180910390f35b61011661041a565b6040516101239190610ee0565b60405180910390f35b610134610501565b6040516101419190610e8a565b60405180910390f35b610164600480360361015f9190810190610b66565b610527565b005b61016e6107a8565b60405161017b9190610ea5565b60405180910390f35b61018c6107ce565b6040516101999190610daf565b60405180910390f35b600360009054906101000a900473ffffffffffffffffffffffffffffffffffffffff1681565b600460009054906101000a900473ffffffffffffffffffffffffffffffffffffffff1673ffffffffffffffffffffffffffffffffffffffff1663095ea7b3600160009054906101000a900473ffffffffffffffffffffffffffffffffffffffff16836040518363ffffffff1660e01b8152600401610247929190610e01565b602060405180830381600087803b15801561026157600080fd5b505af1158015610275573d6000803e3d6000fd5b505050506040513d601f19601f820116820180604052506102999190810190610b13565b506000809054906101000a900473ffffffffffffffffffffffffffffffffffffffff1673ffffffffffffffffffffffffffffffffffffffff1663a0712d68826040518263ffffffff1660e01b81526004016102f49190610efc565b602060405180830381600087803b15801561030e57600080fd5b505af1158015610322573d6000803e3d6000fd5b505050506040513d601f19601f820116820180604052506103469190810190610b8f565b5050565b6000809054906101000a900473ffffffffffffffffffffffffffffffffffffffff1681565b6000806000809054906101000a900473ffffffffffffffffffffffffffffffffffffffff1673ffffffffffffffffffffffffffffffffffffffff1663ae9d70b06040518163ffffffff1660e01b815260040160206040518083038186803b1580156103d957600080fd5b505afa1580156103ed573d6000803e3d6000fd5b505050506040513d601f19601f820116820180604052506104119190810190610b8f565b90508091505090565b6104226107f4565b61042a6107f4565b600260009054906101000a900473ffffffffffffffffffffffffffffffffffffffff1673ffffffffffffffffffffffffffffffffffffffff166335ea6a75600360009054906101000a900473ffffffffffffffffffffffffffffffffffffffff166040518263ffffffff1660e01b81526004016104a79190610daf565b6101806040518083038186803b1580156104c057600080fd5b505afa1580156104d4573d6000803e3d6000fd5b505050506040513d601f19601f820116820180604052506104f89190810190610b3c565b90508091505090565b600460009054906101000a900473ffffffffffffffffffffffffffffffffffffffff1681565b6000339050600460009054906101000a900473ffffffffffffffffffffffffffffffffffffffff1673ffffffffffffffffffffffffffffffffffffffff1663095ea7b3600260009054906101000a900473ffffffffffffffffffffffffffffffffffffffff16846040518363ffffffff1660e01b81526004016105ab929190610e01565b602060405180830381600087803b1580156105c557600080fd5b505af11580156105d9573d6000803e3d6000fd5b505050506040513d601f19601f820116820180604052506105fd9190810190610b13565b50600460009054906101000a900473ffffffffffffffffffffffffffffffffffffffff1673ffffffffffffffffffffffffffffffffffffffff166323b872dd8230856040518463ffffffff1660e01b815260040161065d93929190610dca565b602060405180830381600087803b15801561067757600080fd5b505af115801561068b573d6000803e3d6000fd5b505050506040513d601f19601f820116820180604052506106af9190810190610b13565b6106ee576040517f08c379a00000000000000000000000000000000000000000000000000000000081526004016106e590610ec0565b60405180910390fd5b600260009054906101000a900473ffffffffffffffffffffffffffffffffffffffff1673ffffffffffffffffffffffffffffffffffffffff1663e8eda9df600360009054906101000a900473ffffffffffffffffffffffffffffffffffffffff16848460006040518563ffffffff1660e01b81526004016107729493929190610e2a565b600060405180830381600087803b15801561078c57600080fd5b505af11580156107a0573d6000803e3d6000fd5b505050505050565b600260009054906101000a900473ffffffffffffffffffffffffffffffffffffffff1681565b600160009054906101000a900473ffffffffffffffffffffffffffffffffffffffff1681565b604051806101800160405280610808610917565b815260200160006fffffffffffffffffffffffffffffffff16815260200160006fffffffffffffffffffffffffffffffff16815260200160006fffffffffffffffffffffffffffffffff16815260200160006fffffffffffffffffffffffffffffffff16815260200160006fffffffffffffffffffffffffffffffff168152602001600064ffffffffff168152602001600073ffffffffffffffffffffffffffffffffffffffff168152602001600073ffffffffffffffffffffffffffffffffffffffff168152602001600073ffffffffffffffffffffffffffffffffffffffff168152602001600073ffffffffffffffffffffffffffffffffffffffff168152602001600060ff1681525090565b6040518060200160405280600081525090565b60008151905061093981611063565b92915050565b60008151905061094e8161107a565b92915050565b60006020828403121561096657600080fd5b6109706020610f17565b9050600061098084828501610ad4565b60008301525092915050565b6000610180828403121561099f57600080fd5b6109aa610180610f17565b905060006109ba84828501610954565b60008301525060206109ce84828501610aaa565b60208301525060406109e284828501610aaa565b60408301525060606109f684828501610aaa565b6060830152506080610a0a84828501610aaa565b60808301525060a0610a1e84828501610aaa565b60a08301525060c0610a3284828501610ae9565b60c08301525060e0610a468482850161092a565b60e083015250610100610a5b8482850161092a565b61010083015250610120610a718482850161092a565b61012083015250610140610a878482850161092a565b61014083015250610160610a9d84828501610afe565b6101608301525092915050565b600081519050610ab981611091565b92915050565b600081359050610ace816110a8565b92915050565b600081519050610ae3816110a8565b92915050565b600081519050610af8816110bf565b92915050565b600081519050610b0d816110d6565b92915050565b600060208284031215610b2557600080fd5b6000610b338482850161093f565b91505092915050565b60006101808284031215610b4f57600080fd5b6000610b5d8482850161098c565b91505092915050565b600060208284031215610b7857600080fd5b6000610b8684828501610abf565b91505092915050565b600060208284031215610ba157600080fd5b6000610baf84828501610ad4565b91505092915050565b610bc181610f55565b82525050565b610bd081610f55565b82525050565b610bdf81610fe5565b82525050565b610bee81611009565b82525050565b610bfd8161102d565b82525050565b610c0c81611051565b82525050565b6000610c1f601483610f44565b91507f444149205472616e73666572206661696c6564210000000000000000000000006000830152602082019050919050565b602082016000820151610c686000850182610d73565b50505050565b61018082016000820151610c856000850182610c52565b506020820151610c986020850182610d64565b506040820151610cab6040850182610d64565b506060820151610cbe6060850182610d64565b506080820151610cd16080850182610d64565b5060a0820151610ce460a0850182610d64565b5060c0820151610cf760c0850182610d91565b5060e0820151610d0a60e0850182610bb8565b50610100820151610d1f610100850182610bb8565b50610120820151610d34610120850182610bb8565b50610140820151610d49610140850182610bb8565b50610160820151610d5e610160850182610da0565b50505050565b610d6d81610f73565b82525050565b610d7c81610fbd565b82525050565b610d8b81610fbd565b82525050565b610d9a81610fc7565b82525050565b610da981610fd8565b82525050565b6000602082019050610dc46000830184610bc7565b92915050565b6000606082019050610ddf6000830186610bc7565b610dec6020830185610bc7565b610df96040830184610d82565b949350505050565b6000604082019050610e166000830185610bc7565b610e236020830184610d82565b9392505050565b6000608082019050610e3f6000830187610bc7565b610e4c6020830186610d82565b610e596040830185610bc7565b610e666060830184610c03565b95945050505050565b6000602082019050610e846000830184610bd6565b92915050565b6000602082019050610e9f6000830184610be5565b92915050565b6000602082019050610eba6000830184610bf4565b92915050565b60006020820190508181036000830152610ed981610c12565b9050919050565b600061018082019050610ef66000830184610c6e565b92915050565b6000602082019050610f116000830184610d82565b92915050565b6000604051905081810181811067ffffffffffffffff82111715610f3a57600080fd5b8060405250919050565b600082825260208201905092915050565b6000610f6082610f9d565b9050919050565b60008115159050919050565b60006fffffffffffffffffffffffffffffffff82169050919050565b600061ffff82169050919050565b600073ffffffffffffffffffffffffffffffffffffffff82169050919050565b6000819050919050565b600064ffffffffff82169050919050565b600060ff82169050919050565b6000610ff082610ff7565b9050919050565b600061100282610f9d565b9050919050565b60006110148261101b565b9050919050565b600061102682610f9d565b9050919050565b60006110388261103f565b9050919050565b600061104a82610f9d565b9050919050565b600061105c82610f8f565b9050919050565b61106c81610f55565b811461107757600080fd5b50565b61108381610f67565b811461108e57600080fd5b50565b61109a81610f73565b81146110a557600080fd5b50565b6110b181610fbd565b81146110bc57600080fd5b50565b6110c881610fc7565b81146110d357600080fd5b50565b6110df81610fd8565b81146110ea57600080fd5b5056fea365627a7a72315820d83a106279d9b6a6970cfb4ebb4b4e5838e53587b2890c2a1d3e3ac873197cff6c6578706572696d656e74616cf564736f6c63430005110040",
  "source": "pragma solidity ^0.5.16;\npragma experimental ABIEncoderV2;\n\n// import \"../protocols/compound-protocol/contracts/CTokenInterfaces.sol\";\n// import \"../protocols/compound-protocol/contracts/CErc20Interface.sol\";\nimport \"./CTokenInterface.sol\";\n// import \"../protocols/aave-protocol/contracts/lendingpool/LendingPool.sol\";\nimport \"openzeppelin-solidity/contracts/token/ERC20/IERC20.sol\";\nimport {ILendingPool} from \"@aave/protocol-v2/contracts/interfaces/ILendingPool.sol\";\nimport {DataTypes} from '@aave/protocol-v2/contracts/protocol/libraries/types/DataTypes.sol';\n\n\ncontract MainContract {\n    // TRY THIS\n    // using SafeERC20Upgradeable for IERC20Upgradeable;\n    \n    CTokenInterface public cDai;\n    // CErc20Interface public cDaiInterface;\n    address public cDaiAddress;\n\n    ILendingPool public aaveLendingPool;\n\n    address public daiAddress;\n    IERC20 public daiToken;\n\n\n\n    constructor(address _cDai, address _LendingPool, address _daiAddress) public {\n        cDai = CTokenInterface(_cDai);\n        cDaiAddress = _cDai;\n        // cDaiInterface = CErc20Interface(_cDai);\n        aaveLendingPool = ILendingPool(_LendingPool);\n        daiAddress = _daiAddress;        \n        daiToken = IERC20(_daiAddress);\n\n        // APY FUNCTIONS\n\n    }\n\n    function getCompoundDaiSupplyRate() public view returns (uint) {\n        uint daiSupplyRate = cDai.supplyRatePerBlock(); \n        return daiSupplyRate;\n    \n    }\n\n    function getAaveRate() public view returns (DataTypes.ReserveData memory) {\n        DataTypes.ReserveData memory data;\n        data = aaveLendingPool.getReserveData(daiAddress);\n        return data;\n\n    }\n\n    // DEPOSIT FUNCTIONS\n    function depositCompound(uint amount) public {\n        daiToken.approve(address(cDaiAddress), amount);\n        cDai.mint(amount);\n\n        // ^^^always returns \"Revert Dai/insufficient balance\" no explanation\n\n\n    }\n   \n    \n    function depositAave(uint amount) public  {\n        address user = msg.sender;\n        daiToken.approve(address(aaveLendingPool), amount);\n\n        require(daiToken.transferFrom(user, address(this), amount), \"DAI Transfer failed!\");\n        aaveLendingPool.deposit(daiAddress, amount, user, 0);\n    \n    }\n\n}",
  "sourcePath": "/Users/nolanjannotta/DU/Dapp-University-Application/src/contracts/MainContract.sol",
  "compiler": {
    "name": "solc",
    "version": "0.5.17+commit.d19bba13.Emscripten.clang"
  },
  "schemaVersion": "3.4.0",
  "updatedAt": "2021-09-23T03:31:32.951Z",
  "networkType": "ethereum",
  "devdoc": {
    "methods": {}
  },
  "userdoc": {
    "methods": {}
  }
}