{
  "contractName": "MainContract",
  "abi": [
    {
      "inputs": [
        {
          "internalType": "address",
          "name": "_cDai",
          "type": "address"
        },
        {
          "internalType": "address",
          "name": "_LendingPool",
          "type": "address"
        },
        {
          "internalType": "address",
          "name": "_daiAddress",
          "type": "address"
        }
      ],
      "payable": false,
      "stateMutability": "nonpayable",
      "type": "constructor"
    },
    {
      "constant": true,
      "inputs": [],
      "name": "aaveLendingPool",
      "outputs": [
        {
          "internalType": "contract ILendingPool",
          "name": "",
          "type": "address"
        }
      ],
      "payable": false,
      "stateMutability": "view",
      "type": "function"
    },
    {
      "constant": true,
      "inputs": [],
      "name": "cDai",
      "outputs": [
        {
          "internalType": "contract CTokenInterface",
          "name": "",
          "type": "address"
        }
      ],
      "payable": false,
      "stateMutability": "view",
      "type": "function"
    },
    {
      "constant": true,
      "inputs": [],
      "name": "cDaiAddress",
      "outputs": [
        {
          "internalType": "address",
          "name": "",
          "type": "address"
        }
      ],
      "payable": false,
      "stateMutability": "view",
      "type": "function"
    },
    {
      "constant": true,
      "inputs": [],
      "name": "daiAddress",
      "outputs": [
        {
          "internalType": "address",
          "name": "",
          "type": "address"
        }
      ],
      "payable": false,
      "stateMutability": "view",
      "type": "function"
    },
    {
      "constant": true,
      "inputs": [],
      "name": "daiToken",
      "outputs": [
        {
          "internalType": "contract IERC20",
          "name": "",
          "type": "address"
        }
      ],
      "payable": false,
      "stateMutability": "view",
      "type": "function"
    },
    {
      "constant": true,
      "inputs": [],
      "name": "lastPool",
      "outputs": [
        {
          "internalType": "uint256",
          "name": "",
          "type": "uint256"
        }
      ],
      "payable": false,
      "stateMutability": "view",
      "type": "function"
    },
    {
      "constant": true,
      "inputs": [
        {
          "internalType": "address",
          "name": "",
          "type": "address"
        }
      ],
      "name": "userToDaiBalance",
      "outputs": [
        {
          "internalType": "uint256",
          "name": "",
          "type": "uint256"
        }
      ],
      "payable": false,
      "stateMutability": "view",
      "type": "function"
    },
    {
      "constant": false,
      "inputs": [
        {
          "internalType": "uint256",
          "name": "amount",
          "type": "uint256"
        }
      ],
      "name": "fundContract",
      "outputs": [],
      "payable": false,
      "stateMutability": "nonpayable",
      "type": "function"
    },
    {
      "constant": false,
      "inputs": [],
      "name": "drainContract",
      "outputs": [],
      "payable": false,
      "stateMutability": "nonpayable",
      "type": "function"
    },
    {
      "constant": true,
      "inputs": [],
      "name": "getCompoundDaiSupplyRate",
      "outputs": [
        {
          "internalType": "uint256",
          "name": "",
          "type": "uint256"
        }
      ],
      "payable": false,
      "stateMutability": "view",
      "type": "function"
    },
    {
      "constant": true,
      "inputs": [],
      "name": "getAaveRate",
      "outputs": [
        {
          "components": [
            {
              "components": [
                {
                  "internalType": "uint256",
                  "name": "data",
                  "type": "uint256"
                }
              ],
              "internalType": "struct DataTypes.ReserveConfigurationMap",
              "name": "configuration",
              "type": "tuple"
            },
            {
              "internalType": "uint128",
              "name": "liquidityIndex",
              "type": "uint128"
            },
            {
              "internalType": "uint128",
              "name": "variableBorrowIndex",
              "type": "uint128"
            },
            {
              "internalType": "uint128",
              "name": "currentLiquidityRate",
              "type": "uint128"
            },
            {
              "internalType": "uint128",
              "name": "currentVariableBorrowRate",
              "type": "uint128"
            },
            {
              "internalType": "uint128",
              "name": "currentStableBorrowRate",
              "type": "uint128"
            },
            {
              "internalType": "uint40",
              "name": "lastUpdateTimestamp",
              "type": "uint40"
            },
            {
              "internalType": "address",
              "name": "aTokenAddress",
              "type": "address"
            },
            {
              "internalType": "address",
              "name": "stableDebtTokenAddress",
              "type": "address"
            },
            {
              "internalType": "address",
              "name": "variableDebtTokenAddress",
              "type": "address"
            },
            {
              "internalType": "address",
              "name": "interestRateStrategyAddress",
              "type": "address"
            },
            {
              "internalType": "uint8",
              "name": "id",
              "type": "uint8"
            }
          ],
          "internalType": "struct DataTypes.ReserveData",
          "name": "",
          "type": "tuple"
        }
      ],
      "payable": false,
      "stateMutability": "view",
      "type": "function"
    },
    {
      "constant": false,
      "inputs": [
        {
          "internalType": "uint256",
          "name": "amount",
          "type": "uint256"
        }
      ],
      "name": "depositCompound",
      "outputs": [],
      "payable": false,
      "stateMutability": "nonpayable",
      "type": "function"
    },
    {
      "constant": false,
      "inputs": [
        {
          "internalType": "uint256",
          "name": "amount",
          "type": "uint256"
        }
      ],
      "name": "depositAave",
      "outputs": [],
      "payable": false,
      "stateMutability": "nonpayable",
      "type": "function"
    },
    {
      "constant": false,
      "inputs": [
        {
          "internalType": "uint256",
          "name": "amount",
          "type": "uint256"
        }
      ],
      "name": "withdrawCompound",
      "outputs": [],
      "payable": false,
      "stateMutability": "nonpayable",
      "type": "function"
    },
    {
      "constant": false,
      "inputs": [],
      "name": "withdrawAave",
      "outputs": [],
      "payable": false,
      "stateMutability": "nonpayable",
      "type": "function"
    },
    {
      "constant": false,
      "inputs": [
        {
          "internalType": "uint256",
          "name": "amountCDai",
          "type": "uint256"
        }
      ],
      "name": "Switch",
      "outputs": [],
      "payable": false,
      "stateMutability": "nonpayable",
      "type": "function"
    }
  ],
  "bytecode": "0x60806040523480156200001157600080fd5b5060405162001b7338038062001b738339818101604052620000379190810190620001a4565b82600160006101000a81548173ffffffffffffffffffffffffffffffffffffffff021916908373ffffffffffffffffffffffffffffffffffffffff16021790555082600260006101000a81548173ffffffffffffffffffffffffffffffffffffffff021916908373ffffffffffffffffffffffffffffffffffffffff16021790555081600360006101000a81548173ffffffffffffffffffffffffffffffffffffffff021916908373ffffffffffffffffffffffffffffffffffffffff16021790555080600460006101000a81548173ffffffffffffffffffffffffffffffffffffffff021916908373ffffffffffffffffffffffffffffffffffffffff16021790555080600560006101000a81548173ffffffffffffffffffffffffffffffffffffffff021916908373ffffffffffffffffffffffffffffffffffffffff160217905550600060068190555050505062000248565b6000815190506200019e816200022e565b92915050565b600080600060608486031215620001ba57600080fd5b6000620001ca868287016200018d565b9350506020620001dd868287016200018d565b9250506040620001f0868287016200018d565b9150509250925092565b600062000207826200020e565b9050919050565b600073ffffffffffffffffffffffffffffffffffffffff82169050919050565b6200023981620001fa565b81146200024557600080fd5b50565b61191b80620002586000396000f3fe608060405234801561001057600080fd5b50600436106101005760003560e01c8063b1dfd8b411610097578063d0360e5911610066578063d0360e5914610263578063d18345ed1461026d578063e9d337b814610289578063f2c65bf9146102a757610100565b8063b1dfd8b4146101ed578063bd9e2dd61461020b578063be22f54614610229578063c604eda51461024757610100565b80635bc929fb116100d35780635bc929fb146101795780637a51fc931461019557806387921830146101c55780639b089d55146101cf57610100565b80632c387275146101055780632fd49abe146101235780633519a2f81461014157806357b875431461015d575b600080fd5b61010d6102c5565b60405161011a919061152d565b60405180910390f35b61012b6102eb565b60405161013891906116b1565b60405180910390f35b61015b600480360361015691908101906112d5565b6102f1565b005b610177600480360361017291908101906112d5565b610430565b005b610193600480360361018e91908101906112d5565b610535565b005b6101af60048036036101aa9190810190611259565b61070c565b6040516101bc91906116b1565b60405180910390f35b6101cd610724565b005b6101d7610872565b6040516101e49190611624565b60405180910390f35b6101f5610898565b60405161020291906116b1565b60405180910390f35b610213610944565b6040516102209190611695565b60405180910390f35b610231610a2b565b60405161023e919061163f565b60405180910390f35b610261600480360361025c91908101906112d5565b610a51565b005b61026b610b92565b005b610287600480360361028291908101906112d5565b610cfa565b005b610291610ed9565b60405161029e919061165a565b60405180910390f35b6102af610eff565b6040516102bc919061152d565b60405180910390f35b600460009054906101000a900473ffffffffffffffffffffffffffffffffffffffff1681565b60065481565b600560009054906101000a900473ffffffffffffffffffffffffffffffffffffffff1673ffffffffffffffffffffffffffffffffffffffff166323b872dd3330846040518463ffffffff1660e01b815260040161035093929190611548565b602060405180830381600087803b15801561036a57600080fd5b505af115801561037e573d6000803e3d6000fd5b505050506040513d601f19601f820116820180604052506103a29190810190611282565b6103e1576040517f08c379a00000000000000000000000000000000000000000000000000000000081526004016103d890611675565b60405180910390fd5b806000803373ffffffffffffffffffffffffffffffffffffffff1673ffffffffffffffffffffffffffffffffffffffff1681526020019081526020016000206000828254019250508190555050565b600160009054906101000a900473ffffffffffffffffffffffffffffffffffffffff1673ffffffffffffffffffffffffffffffffffffffff1663db006a75826040518263ffffffff1660e01b815260040161048b91906116b1565b602060405180830381600087803b1580156104a557600080fd5b505af11580156104b9573d6000803e3d6000fd5b505050506040513d601f19601f820116820180604052506104dd91908101906112fe565b50806000803373ffffffffffffffffffffffffffffffffffffffff1673ffffffffffffffffffffffffffffffffffffffff16815260200190815260200160002060008282540192505081905550600060068190555050565b600560009054906101000a900473ffffffffffffffffffffffffffffffffffffffff1673ffffffffffffffffffffffffffffffffffffffff1663095ea7b3600260009054906101000a900473ffffffffffffffffffffffffffffffffffffffff16836040518363ffffffff1660e01b81526004016105b492919061157f565b602060405180830381600087803b1580156105ce57600080fd5b505af11580156105e2573d6000803e3d6000fd5b505050506040513d601f19601f820116820180604052506106069190810190611282565b50806000803373ffffffffffffffffffffffffffffffffffffffff1673ffffffffffffffffffffffffffffffffffffffff16815260200190815260200160002060008282540392505081905550600160009054906101000a900473ffffffffffffffffffffffffffffffffffffffff1673ffffffffffffffffffffffffffffffffffffffff1663a0712d68826040518263ffffffff1660e01b81526004016106ae91906116b1565b602060405180830381600087803b1580156106c857600080fd5b505af11580156106dc573d6000803e3d6000fd5b505050506040513d601f19601f8201168201806040525061070091908101906112fe565b50600160068190555050565b60006020528060005260406000206000915090505481565b6000600360009054906101000a900473ffffffffffffffffffffffffffffffffffffffff1673ffffffffffffffffffffffffffffffffffffffff166369328dec600560009054906101000a900473ffffffffffffffffffffffffffffffffffffffff167fffffffffffffffffffffffffffffffffffffffffffffffffffffffffffffffff306040518463ffffffff1660e01b81526004016107c7939291906115a8565b602060405180830381600087803b1580156107e157600080fd5b505af11580156107f5573d6000803e3d6000fd5b505050506040513d601f19601f8201168201806040525061081991908101906112fe565b9050806000803373ffffffffffffffffffffffffffffffffffffffff1673ffffffffffffffffffffffffffffffffffffffff16815260200190815260200160002060008282540192505081905550600060068190555050565b600160009054906101000a900473ffffffffffffffffffffffffffffffffffffffff1681565b600080600160009054906101000a900473ffffffffffffffffffffffffffffffffffffffff1673ffffffffffffffffffffffffffffffffffffffff1663ae9d70b06040518163ffffffff1660e01b815260040160206040518083038186803b15801561090357600080fd5b505afa158015610917573d6000803e3d6000fd5b505050506040513d601f19601f8201168201806040525061093b91908101906112fe565b90508091505090565b61094c610f25565b610954610f25565b600360009054906101000a900473ffffffffffffffffffffffffffffffffffffffff1673ffffffffffffffffffffffffffffffffffffffff166335ea6a75600460009054906101000a900473ffffffffffffffffffffffffffffffffffffffff166040518263ffffffff1660e01b81526004016109d1919061152d565b6101806040518083038186803b1580156109ea57600080fd5b505afa1580156109fe573d6000803e3d6000fd5b505050506040513d601f19601f82011682018060405250610a2291908101906112ab565b90508091505090565b600560009054906101000a900473ffffffffffffffffffffffffffffffffffffffff1681565b60016006541415610b2357610a6581610430565b6000600560009054906101000a900473ffffffffffffffffffffffffffffffffffffffff1673ffffffffffffffffffffffffffffffffffffffff166370a08231306040518263ffffffff1660e01b8152600401610ac2919061152d565b60206040518083038186803b158015610ada57600080fd5b505afa158015610aee573d6000803e3d6000fd5b505050506040513d601f19601f82011682018060405250610b1291908101906112fe565b9050610b1d81610cfa565b50610b8e565b60026006541415610b8857610b36610724565b60008060003373ffffffffffffffffffffffffffffffffffffffff1673ffffffffffffffffffffffffffffffffffffffff168152602001908152602001600020549050610b8281610535565b50610b8d565b610b8f565b5b5b50565b60003390506000600560009054906101000a900473ffffffffffffffffffffffffffffffffffffffff1673ffffffffffffffffffffffffffffffffffffffff166370a08231306040518263ffffffff1660e01b8152600401610bf4919061152d565b60206040518083038186803b158015610c0c57600080fd5b505afa158015610c20573d6000803e3d6000fd5b505050506040513d601f19601f82011682018060405250610c4491908101906112fe565b9050600560009054906101000a900473ffffffffffffffffffffffffffffffffffffffff1673ffffffffffffffffffffffffffffffffffffffff1663a9059cbb83836040518363ffffffff1660e01b8152600401610ca392919061157f565b602060405180830381600087803b158015610cbd57600080fd5b505af1158015610cd1573d6000803e3d6000fd5b505050506040513d601f19601f82011682018060405250610cf59190810190611282565b505050565b600560009054906101000a900473ffffffffffffffffffffffffffffffffffffffff1673ffffffffffffffffffffffffffffffffffffffff1663095ea7b3600360009054906101000a900473ffffffffffffffffffffffffffffffffffffffff16836040518363ffffffff1660e01b8152600401610d7992919061157f565b602060405180830381600087803b158015610d9357600080fd5b505af1158015610da7573d6000803e3d6000fd5b505050506040513d601f19601f82011682018060405250610dcb9190810190611282565b50806000803373ffffffffffffffffffffffffffffffffffffffff1673ffffffffffffffffffffffffffffffffffffffff16815260200190815260200160002060008282540392505081905550600360009054906101000a900473ffffffffffffffffffffffffffffffffffffffff1673ffffffffffffffffffffffffffffffffffffffff1663e8eda9df600460009054906101000a900473ffffffffffffffffffffffffffffffffffffffff16833060006040518563ffffffff1660e01b8152600401610e9c94939291906115df565b600060405180830381600087803b158015610eb657600080fd5b505af1158015610eca573d6000803e3d6000fd5b50505050600260068190555050565b600360009054906101000a900473ffffffffffffffffffffffffffffffffffffffff1681565b600260009054906101000a900473ffffffffffffffffffffffffffffffffffffffff1681565b604051806101800160405280610f39611048565b815260200160006fffffffffffffffffffffffffffffffff16815260200160006fffffffffffffffffffffffffffffffff16815260200160006fffffffffffffffffffffffffffffffff16815260200160006fffffffffffffffffffffffffffffffff16815260200160006fffffffffffffffffffffffffffffffff168152602001600064ffffffffff168152602001600073ffffffffffffffffffffffffffffffffffffffff168152602001600073ffffffffffffffffffffffffffffffffffffffff168152602001600073ffffffffffffffffffffffffffffffffffffffff168152602001600073ffffffffffffffffffffffffffffffffffffffff168152602001600060ff1681525090565b6040518060200160405280600081525090565b60008135905061106a8161184e565b92915050565b60008151905061107f8161184e565b92915050565b60008151905061109481611865565b92915050565b6000602082840312156110ac57600080fd5b6110b660206116cc565b905060006110c68482850161121a565b60008301525092915050565b600061018082840312156110e557600080fd5b6110f06101806116cc565b905060006111008482850161109a565b6000830152506020611114848285016111f0565b6020830152506040611128848285016111f0565b604083015250606061113c848285016111f0565b6060830152506080611150848285016111f0565b60808301525060a0611164848285016111f0565b60a08301525060c06111788482850161122f565b60c08301525060e061118c84828501611070565b60e0830152506101006111a184828501611070565b610100830152506101206111b784828501611070565b610120830152506101406111cd84828501611070565b610140830152506101606111e384828501611244565b6101608301525092915050565b6000815190506111ff8161187c565b92915050565b60008135905061121481611893565b92915050565b60008151905061122981611893565b92915050565b60008151905061123e816118aa565b92915050565b600081519050611253816118c1565b92915050565b60006020828403121561126b57600080fd5b60006112798482850161105b565b91505092915050565b60006020828403121561129457600080fd5b60006112a284828501611085565b91505092915050565b600061018082840312156112be57600080fd5b60006112cc848285016110d2565b91505092915050565b6000602082840312156112e757600080fd5b60006112f584828501611205565b91505092915050565b60006020828403121561131057600080fd5b600061131e8482850161121a565b91505092915050565b6113308161179a565b82525050565b61133f8161170a565b82525050565b61134e8161170a565b82525050565b61135d816117ac565b82525050565b61136c816117d0565b82525050565b61137b816117f4565b82525050565b61138a81611818565b82525050565b600061139d6014836116f9565b91507f444149205472616e73666572206661696c6564210000000000000000000000006000830152602082019050919050565b6020820160008201516113e660008501826114f1565b50505050565b6101808201600082015161140360008501826113d0565b50602082015161141660208501826114e2565b50604082015161142960408501826114e2565b50606082015161143c60608501826114e2565b50608082015161144f60808501826114e2565b5060a082015161146260a08501826114e2565b5060c082015161147560c085018261150f565b5060e082015161148860e0850182611336565b5061010082015161149d610100850182611336565b506101208201516114b2610120850182611336565b506101408201516114c7610140850182611336565b506101608201516114dc61016085018261151e565b50505050565b6114eb81611728565b82525050565b6114fa81611772565b82525050565b61150981611772565b82525050565b6115188161177c565b82525050565b6115278161178d565b82525050565b60006020820190506115426000830184611345565b92915050565b600060608201905061155d6000830186611327565b61156a6020830185611345565b6115776040830184611500565b949350505050565b60006040820190506115946000830185611345565b6115a16020830184611500565b9392505050565b60006060820190506115bd6000830186611345565b6115ca6020830185611500565b6115d76040830184611345565b949350505050565b60006080820190506115f46000830187611345565b6116016020830186611500565b61160e6040830185611345565b61161b6060830184611381565b95945050505050565b60006020820190506116396000830184611354565b92915050565b60006020820190506116546000830184611363565b92915050565b600060208201905061166f6000830184611372565b92915050565b6000602082019050818103600083015261168e81611390565b9050919050565b6000610180820190506116ab60008301846113ec565b92915050565b60006020820190506116c66000830184611500565b92915050565b6000604051905081810181811067ffffffffffffffff821117156116ef57600080fd5b8060405250919050565b600082825260208201905092915050565b600061171582611752565b9050919050565b60008115159050919050565b60006fffffffffffffffffffffffffffffffff82169050919050565b600061ffff82169050919050565b600073ffffffffffffffffffffffffffffffffffffffff82169050919050565b6000819050919050565b600064ffffffffff82169050919050565b600060ff82169050919050565b60006117a58261182a565b9050919050565b60006117b7826117be565b9050919050565b60006117c982611752565b9050919050565b60006117db826117e2565b9050919050565b60006117ed82611752565b9050919050565b60006117ff82611806565b9050919050565b600061181182611752565b9050919050565b600061182382611744565b9050919050565b60006118358261183c565b9050919050565b600061184782611752565b9050919050565b6118578161170a565b811461186257600080fd5b50565b61186e8161171c565b811461187957600080fd5b50565b61188581611728565b811461189057600080fd5b50565b61189c81611772565b81146118a757600080fd5b50565b6118b38161177c565b81146118be57600080fd5b50565b6118ca8161178d565b81146118d557600080fd5b5056fea365627a7a723158209f9095c1bd8c6df66f9d86b84b841c018d093265e7a817b2ac61880acaa76f4c6c6578706572696d656e74616cf564736f6c63430005110040",
  "source": "pragma solidity ^0.5.16;\npragma experimental ABIEncoderV2;\n\n// import \"../protocols/compound-protocol/contracts/CTokenInterfaces.sol\";\n// import \"../protocols/compound-protocol/contracts/CErc20Interface.sol\";\nimport \"./CTokenInterface.sol\";\n// import \"../protocols/aave-protocol/contracts/lendingpool/LendingPool.sol\";\nimport \"openzeppelin-solidity/contracts/token/ERC20/IERC20.sol\";\nimport {ILendingPool} from \"@aave/protocol-v2/contracts/interfaces/ILendingPool.sol\";\nimport {DataTypes} from '@aave/protocol-v2/contracts/protocol/libraries/types/DataTypes.sol';\n\n\ncontract MainContract {\n    // TRY THIS\n    // using SafeERC20Upgradeable for IERC20Upgradeable;\n\n    mapping(address => uint) public userToDaiBalance;\n    \n    \n    CTokenInterface public cDai;\n    // CErc20Interface public cDaiInterface;\n    address public cDaiAddress;\n\n    ILendingPool public aaveLendingPool;\n\n    address public daiAddress;\n    IERC20 public daiToken;\n\n    uint public lastPool; // keeps track of the last pool that that has been deposited into\n\n\n\n    constructor(address _cDai, address _LendingPool, address _daiAddress) public {\n        cDai = CTokenInterface(_cDai);\n        cDaiAddress = _cDai;\n        // cDaiInterface = CErc20Interface(_cDai);\n        aaveLendingPool = ILendingPool(_LendingPool);\n        daiAddress = _daiAddress;        \n        daiToken = IERC20(_daiAddress);\n        lastPool = 0;\n\n        // FUND CONTRACT WITH DAI\n\n    }\n    function fundContract(uint amount) public {\n        // address user = msg.sender;\n        require(daiToken.transferFrom(msg.sender, address(this), (amount)), \"DAI Transfer failed!\");\n        userToDaiBalance[msg.sender] += amount;\n    }\n    function drainContract() public {\n        address user = msg.sender;\n        uint balance = daiToken.balanceOf(address(this)); \n        daiToken.transfer(user, balance);\n    }\n\n        // APY FUNCTIONS\n\n   \n\n    function getCompoundDaiSupplyRate() public view returns (uint) {\n        uint daiSupplyRate = cDai.supplyRatePerBlock(); \n        return daiSupplyRate;\n    \n    }\n\n    function getAaveRate() public view returns (DataTypes.ReserveData memory) {\n        DataTypes.ReserveData memory data;\n        data = aaveLendingPool.getReserveData(daiAddress);\n        return data;\n\n    }\n\n\n    \n\n   \n    // DEPOSIT FUNCTIONS\n    function depositCompound(uint amount) public {\n                // UNTESTED CODE\n        // uint cDaiBalance = (cDai.exchangeRateCurrent()) * amount;\n\n\n        daiToken.approve(address(cDaiAddress), (amount)); \n        userToDaiBalance[msg.sender] -= amount;  \n\n        cDai.mint(amount);\n        lastPool = 1;\n\n    }\n\n    \n    \n    function depositAave(uint amount) public  {\n        // address user = msg.sender;\n        daiToken.approve(address(aaveLendingPool), amount);\n        userToDaiBalance[msg.sender] -= amount; \n        aaveLendingPool.deposit(daiAddress, (amount), address(this), 0);\n        lastPool = 2;\n    \n    }\n    // WITHDRAW FUNCTIONS\n\n    function withdrawCompound(uint amount) public {\n        cDai.redeem(amount);\n        userToDaiBalance[msg.sender] += amount;\n        lastPool = 0;\n    }\n\n    function withdrawAave() public {\n        uint newBalance = aaveLendingPool.withdraw(address(daiToken), uint256(-1), address(this));\n\n        userToDaiBalance[msg.sender] += newBalance;\n        lastPool = 0;\n\n    }\n\n    function Switch(uint amountCDai) public {\n        if(lastPool == 1) {\n            withdrawCompound(amountCDai);\n            uint newBalance = daiToken.balanceOf(address(this));\n            depositAave(newBalance);\n        } else if(lastPool == 2) {\n            withdrawAave();\n            uint amount = userToDaiBalance[msg.sender];\n            depositCompound(amount);\n        } else {\n            return;\n        }\n\n    }\n\n\n}",
  "sourcePath": "/Users/nolanjannotta/DU/Dapp-University-Application/src/contracts/MainContract.sol",
  "compiler": {
    "name": "solc",
    "version": "0.5.17+commit.d19bba13.Emscripten.clang"
  },
  "schemaVersion": "3.4.0",
  "updatedAt": "2021-09-25T02:15:06.538Z",
  "networkType": "ethereum",
  "devdoc": {
    "methods": {}
  },
  "userdoc": {
    "methods": {}
  }
}