{
  "contractName": "MainContract",
  "abi": [
    {
      "inputs": [],
      "payable": false,
      "stateMutability": "nonpayable",
      "type": "constructor"
    },
    {
      "constant": true,
      "inputs": [],
      "name": "aaveLendingPool",
      "outputs": [
        {
          "internalType": "contract ILendingPool",
          "name": "",
          "type": "address"
        }
      ],
      "payable": false,
      "stateMutability": "view",
      "type": "function"
    },
    {
      "constant": true,
      "inputs": [],
      "name": "cDai",
      "outputs": [
        {
          "internalType": "contract CTokenInterface",
          "name": "",
          "type": "address"
        }
      ],
      "payable": false,
      "stateMutability": "view",
      "type": "function"
    },
    {
      "constant": true,
      "inputs": [],
      "name": "daiToken",
      "outputs": [
        {
          "internalType": "address",
          "name": "",
          "type": "address"
        }
      ],
      "payable": false,
      "stateMutability": "view",
      "type": "function"
    },
    {
      "constant": true,
      "inputs": [],
      "name": "getCompoundDaiSupplyRate",
      "outputs": [
        {
          "internalType": "uint256",
          "name": "",
          "type": "uint256"
        }
      ],
      "payable": false,
      "stateMutability": "view",
      "type": "function"
    },
    {
      "constant": true,
      "inputs": [],
      "name": "getAaveRate",
      "outputs": [
        {
          "components": [
            {
              "components": [
                {
                  "internalType": "uint256",
                  "name": "data",
                  "type": "uint256"
                }
              ],
              "internalType": "struct DataTypes.ReserveConfigurationMap",
              "name": "configuration",
              "type": "tuple"
            },
            {
              "internalType": "uint128",
              "name": "liquidityIndex",
              "type": "uint128"
            },
            {
              "internalType": "uint128",
              "name": "variableBorrowIndex",
              "type": "uint128"
            },
            {
              "internalType": "uint128",
              "name": "currentLiquidityRate",
              "type": "uint128"
            },
            {
              "internalType": "uint128",
              "name": "currentVariableBorrowRate",
              "type": "uint128"
            },
            {
              "internalType": "uint128",
              "name": "currentStableBorrowRate",
              "type": "uint128"
            },
            {
              "internalType": "uint40",
              "name": "lastUpdateTimestamp",
              "type": "uint40"
            },
            {
              "internalType": "address",
              "name": "aTokenAddress",
              "type": "address"
            },
            {
              "internalType": "address",
              "name": "stableDebtTokenAddress",
              "type": "address"
            },
            {
              "internalType": "address",
              "name": "variableDebtTokenAddress",
              "type": "address"
            },
            {
              "internalType": "address",
              "name": "interestRateStrategyAddress",
              "type": "address"
            },
            {
              "internalType": "uint8",
              "name": "id",
              "type": "uint8"
            }
          ],
          "internalType": "struct DataTypes.ReserveData",
          "name": "",
          "type": "tuple"
        }
      ],
      "payable": false,
      "stateMutability": "view",
      "type": "function"
    }
  ],
  "bytecode": "0x608060405234801561001057600080fd5b50735d3a536e4d6dbd6114cc1ead35777bab948e36436000806101000a81548173ffffffffffffffffffffffffffffffffffffffff021916908373ffffffffffffffffffffffffffffffffffffffff160217905550737d2768de32b0b80b7a3454c06bdac94a69ddc7a9600160006101000a81548173ffffffffffffffffffffffffffffffffffffffff021916908373ffffffffffffffffffffffffffffffffffffffff160217905550736b175474e89094c44da98b954eedeac495271d0f600260006101000a81548173ffffffffffffffffffffffffffffffffffffffff021916908373ffffffffffffffffffffffffffffffffffffffff1602179055506109ff8061011e6000396000f3fe608060405234801561001057600080fd5b50600436106100575760003560e01c80639b089d551461005c578063b1dfd8b41461007a578063bd9e2dd614610098578063be22f546146100b6578063e9d337b8146100d4575b600080fd5b6100646100f2565b60405161007191906107f1565b60405180910390f35b610082610117565b60405161008f9190610843565b60405180910390f35b6100a06101c2565b6040516100ad9190610827565b60405180910390f35b6100be6102a9565b6040516100cb91906107d6565b60405180910390f35b6100dc6102cf565b6040516100e9919061080c565b60405180910390f35b6000809054906101000a900473ffffffffffffffffffffffffffffffffffffffff1681565b6000806000809054906101000a900473ffffffffffffffffffffffffffffffffffffffff1673ffffffffffffffffffffffffffffffffffffffff1663ae9d70b06040518163ffffffff1660e01b815260040160206040518083038186803b15801561018157600080fd5b505afa158015610195573d6000803e3d6000fd5b505050506040513d601f19601f820116820180604052506101b99190810190610614565b90508091505090565b6101ca6102f5565b6101d26102f5565b600160009054906101000a900473ffffffffffffffffffffffffffffffffffffffff1673ffffffffffffffffffffffffffffffffffffffff166335ea6a75600260009054906101000a900473ffffffffffffffffffffffffffffffffffffffff166040518263ffffffff1660e01b815260040161024f91906107d6565b6101806040518083038186803b15801561026857600080fd5b505afa15801561027c573d6000803e3d6000fd5b505050506040513d601f19601f820116820180604052506102a091908101906105ea565b90508091505090565b600260009054906101000a900473ffffffffffffffffffffffffffffffffffffffff1681565b600160009054906101000a900473ffffffffffffffffffffffffffffffffffffffff1681565b604051806101800160405280610309610418565b815260200160006fffffffffffffffffffffffffffffffff16815260200160006fffffffffffffffffffffffffffffffff16815260200160006fffffffffffffffffffffffffffffffff16815260200160006fffffffffffffffffffffffffffffffff16815260200160006fffffffffffffffffffffffffffffffff168152602001600064ffffffffff168152602001600073ffffffffffffffffffffffffffffffffffffffff168152602001600073ffffffffffffffffffffffffffffffffffffffff168152602001600073ffffffffffffffffffffffffffffffffffffffff168152602001600073ffffffffffffffffffffffffffffffffffffffff168152602001600060ff1681525090565b6040518060200160405280600081525090565b60008151905061043a81610949565b92915050565b60006020828403121561045257600080fd5b61045c602061085e565b9050600061046c848285016105ab565b60008301525092915050565b6000610180828403121561048b57600080fd5b61049661018061085e565b905060006104a684828501610440565b60008301525060206104ba84828501610596565b60208301525060406104ce84828501610596565b60408301525060606104e284828501610596565b60608301525060806104f684828501610596565b60808301525060a061050a84828501610596565b60a08301525060c061051e848285016105c0565b60c08301525060e06105328482850161042b565b60e0830152506101006105478482850161042b565b6101008301525061012061055d8482850161042b565b610120830152506101406105738482850161042b565b61014083015250610160610589848285016105d5565b6101608301525092915050565b6000815190506105a581610960565b92915050565b6000815190506105ba81610977565b92915050565b6000815190506105cf8161098e565b92915050565b6000815190506105e4816109a5565b92915050565b600061018082840312156105fd57600080fd5b600061060b84828501610478565b91505092915050565b60006020828403121561062657600080fd5b6000610634848285016105ab565b91505092915050565b6106468161088b565b82525050565b6106558161088b565b82525050565b61066481610901565b82525050565b61067381610925565b82525050565b60208201600082015161068f600085018261079a565b50505050565b610180820160008201516106ac6000850182610679565b5060208201516106bf602085018261078b565b5060408201516106d2604085018261078b565b5060608201516106e5606085018261078b565b5060808201516106f8608085018261078b565b5060a082015161070b60a085018261078b565b5060c082015161071e60c08501826107b8565b5060e082015161073160e085018261063d565b5061010082015161074661010085018261063d565b5061012082015161075b61012085018261063d565b5061014082015161077061014085018261063d565b506101608201516107856101608501826107c7565b50505050565b6107948161089d565b82525050565b6107a3816108d9565b82525050565b6107b2816108d9565b82525050565b6107c1816108e3565b82525050565b6107d0816108f4565b82525050565b60006020820190506107eb600083018461064c565b92915050565b6000602082019050610806600083018461065b565b92915050565b6000602082019050610821600083018461066a565b92915050565b60006101808201905061083d6000830184610695565b92915050565b600060208201905061085860008301846107a9565b92915050565b6000604051905081810181811067ffffffffffffffff8211171561088157600080fd5b8060405250919050565b6000610896826108b9565b9050919050565b60006fffffffffffffffffffffffffffffffff82169050919050565b600073ffffffffffffffffffffffffffffffffffffffff82169050919050565b6000819050919050565b600064ffffffffff82169050919050565b600060ff82169050919050565b600061090c82610913565b9050919050565b600061091e826108b9565b9050919050565b600061093082610937565b9050919050565b6000610942826108b9565b9050919050565b6109528161088b565b811461095d57600080fd5b50565b6109698161089d565b811461097457600080fd5b50565b610980816108d9565b811461098b57600080fd5b50565b610997816108e3565b81146109a257600080fd5b50565b6109ae816108f4565b81146109b957600080fd5b5056fea365627a7a723158200a52a598a2d34550e3e7692b5b6363de06b1a5b577a865e6cd5b94f7a243fda66c6578706572696d656e74616cf564736f6c63430005110040",
  "source": "pragma solidity ^0.5.16;\npragma experimental ABIEncoderV2;\n\nimport \"../protocols/compound-protocol/contracts/CTokenInterfaces.sol\";\nimport \"../protocols/aave-protocol/contracts/lendingpool/LendingPool.sol\";\nimport {ILendingPool} from \"@aave/protocol-v2/contracts/interfaces/ILendingPool.sol\";\nimport {DataTypes} from '@aave/protocol-v2/contracts/protocol/libraries/types/DataTypes.sol';\n\n\ncontract MainContract {\n\n    CTokenInterface public cDai;\n    ILendingPool public aaveLendingPool;\n    address public daiToken;\n\n\n\n    constructor() public {\n        cDai = CTokenInterface(0x5d3a536E4D6DbD6114cc1Ead35777bAB948E3643);\n        aaveLendingPool = ILendingPool(0x7d2768dE32b0b80b7a3454c06BdAc94A69DDc7A9);\n        daiToken = 0x6B175474E89094C44Da98b954EedeAC495271d0F;\n    }\n\n    function getCompoundDaiSupplyRate() public view returns (uint) {\n        uint daiSupplyRate = cDai.supplyRatePerBlock(); \n        return daiSupplyRate;\n    \n    }\n\n    function getAaveRate() public view returns (DataTypes.ReserveData memory) {\n        DataTypes.ReserveData memory data;\n        // (,,,,uint reserve,,,,,,,,) = aaveLendingPool.getReserveData(daiToken);\n        data = aaveLendingPool.getReserveData(daiToken);\n \n\n        return data;\n        // return aaveLendingPool;\n\n    }\n        \n    \n    \n    \n}",
  "sourcePath": "/Users/nolanjannotta/DU/Dapp-University-Application/src/contracts/MainContract.sol",
  "compiler": {
    "name": "solc",
    "version": "0.5.17+commit.d19bba13.Emscripten.clang"
  },
  "schemaVersion": "3.4.0",
  "updatedAt": "2021-09-20T17:12:03.694Z",
  "networkType": "ethereum",
  "devdoc": {
    "methods": {}
  },
  "userdoc": {
    "methods": {}
  }
}