{
  "contractName": "UintStorage",
  "abi": [
    {
      "constant": true,
      "inputs": [
        {
          "internalType": "bytes32",
          "name": "_key",
          "type": "bytes32"
        }
      ],
      "name": "getUint",
      "outputs": [
        {
          "internalType": "uint256",
          "name": "",
          "type": "uint256"
        }
      ],
      "payable": false,
      "stateMutability": "view",
      "type": "function"
    }
  ],
  "bytecode": "0x6080604052348015600f57600080fd5b5060bd8061001e6000396000f3fe6080604052348015600f57600080fd5b506004361060285760003560e01c8063bd02d0f514602d575b600080fd5b605660048036036020811015604157600080fd5b8101908080359060200190929190505050606c565b6040518082815260200191505060405180910390f35b600080600083815260200190815260200160002054905091905056fea265627a7a72315820e05a9f6cb7cacadc2239cb8c877e33d03bff2be72115879c043e844b7cc8d03464736f6c63430005110032",
  "source": "pragma solidity ^0.5.0;\n\ncontract UintStorage {\n    mapping(bytes32 => uint256) private uints;\n\n    function getUint(bytes32 _key) public view returns (uint256) {\n        return uints[_key];\n    }\n\n    function _setUint(bytes32 _key, uint256 _value) internal {\n        uints[_key] = _value;\n    }\n\n}\n",
  "sourcePath": "/Users/nolanjannotta/DU/Dapp-University-Application/src/protocols/aave-protocol/contracts/configuration/UintStorage.sol",
  "compiler": {
    "name": "solc",
    "version": "0.5.17+commit.d19bba13.Emscripten.clang"
  },
  "schemaVersion": "3.4.0",
  "updatedAt": "2021-09-19T23:21:28.649Z",
  "devdoc": {
    "methods": {}
  },
  "userdoc": {
    "methods": {}
  }
}